:100000000000032025060000A9F40000C10500003F
:10001000C7050000CD050000D3050000000000006A
:10002000000000000000000000000000FD040000CF
:10003000690600000000000095050000A50500000D
:100040008106000085060000890600008D0600007C
:100050009106000095060000990600009D0600002C
:10006000A1060000A5060000A9060000AD060000DC
:10007000B1060000B5060000B9060000BD0600008C
:10008000C10600006906000069060000690600005C
:1000900069060000690600006906000069060000A4
:1000A000C5060000C9060000CD060000D10600000C
:1000B000D5060000D9060000DD060000E1060000BC
:1000C000E5060000E9060000ED060000F10600006C
:1000D000F5060000F9060000FD06000069060000B4
:1000E0006906000069060000690600006906000054
:1000F0006906000069060000690600006906000044
:100100006906000069060000690600006906000033
:100110006906000069060000690600006906000023
:100120006906000069060000690600006906000013
:100130006906000069060000690600006906000003
:10014000690600000107000005070000090700001C
:100150000D07000011070000690600006906000095
:100160006906000069060000150700001907000075
:100170001D070000210700002507000029070000D7
:100180002D0700003107000035070000290301009A
:1001900041030100590301006906000069060000DF
:1001A0006906000069060000690600006906000093
:1001B0006906000069060000690600006906000083
:1001C0006906000069060000690600006906000073
:1001D0006906000069060000690600006906000063
:1003F000690600006906000069060000FFFFFFFFB4
:10040000FFFFFFFFFFFFFFFFFFFFFFFFFEFFFFFFFD
:1004400010B5054C237833B9044B13B10448AFF30E
:1004500000800123237010BD400C0020000000002C
:100460006CFD010008B5034B1BB103490348AFF312
:10047000008008BD00000000440C00206CFD01005D
:10048000A3F5803A704700BF174B002B08BF134BF2
:100490009D46FFF7F5FF00218B460F461348144A8F
:1004A000121A17F0E9FC0E4B002B00D098470D4BA9
:1004B000002B00D098470020002104000D000D48BB
:1004C000002802D00C4815F05FFE17F0CBF8200092
:1004D000290004F07DFB16F053F800BF000008006F
:1004E000000000002D4B000000000320400C002005
:1004F00000E4002089610100000000001EF0040FEC
:100500000CBFEFF30880EFF30980816911F8021C3A
:1005100091BB01B590E80F10E047BDE800508CE8B2
:100520000300244B93E80600914208BF704741B98D
:100530001EF0100F10D12049086820F0010008605B
:100540000AE02CE9F00F1EF0100F08BF2CED108A06
:10055000C1F838C081F822E01A6092F82210906B3E
:1005600061F0FF0E1EF0100F08BFB0EC108AB0E86B
:10057000F00F80F309887047104A13689942FAD83F
:1005800001B552F821C00FC8E047BDE80050CCF8D3
:100590000000704701B503F061FDBDE80140EFF3D5
:1005A000098CBEE701B503F021FDBDE80140EFF382
:1005B000098CB6E76000002034EF00E048D5010068
:1005C000102300F007B8202300F004B8302300F017
:1005D00001B840239C46F0B404AE7546E80801D348
:1005E000EFF309860E4F0FCE0FC70FBC0FC7404663
:1005F000494652465B460FC71DCE3100A60A00D3BE
:1006000004316E0900D248311FC7EFF309806946F3
:10061000EFF3148663C7604601490EF01DFA00BF70
:100620000004FF1F72B60948094901600948804764
:1006300009490A4A0A4B9A42BEBF51F8040B42F8D4
:10064000040BF8E762B607488047000008ED00E0B9
:100650000000000011F50000A0FD010000000020D6
:10066000400C002089040000FFF7FEBF354800471A
:10067000354800473548004735480047354800476A
:10068000354800473548004735480047354800475A
:10069000354800473548004735480047354800474A
:1006A000354800473548004735480047354800473A
:1006B000354800473548004735480047354800472A
:1006C000354800473548004735480047354800471A
:1006D000354800473548004735480047354800470A
:1006E00035480047354800473548004735480047FA
:1006F00035480047354800473548004735480047EA
:1007000035480047354800473548004735480047D9
:1007100035480047354800473548004734480047CA
:1007200033480047324800473148004730480047C7
:1007300030480047304800473048004730480047BD
:1007400030480047A9F40000C1050000FD04000086
:1007500095050000A50500006DFC000079FC000077
:1007600085FC000091FC00009DFC0000A9FC00003D
:10077000B5FC0000C1FC0000CDFC0000D9FC00006D
:10078000E5FC0000F1FC0000FDFC000009FD00009C
:1007900015FD000021FD000069060000E1030100D5
:1007A000F503010021FB000055FB0000FD050100E1
:1007B0003906010069060000690B010069060000A6
:1007C000850B010069060000A10B0100690600000D
:1007D000BD0B01006906000089FB0000D90B010078
:1007E00069060000F50B010069060000090401001C
:1007F000710301007506010069060000690600002A
:10080000690600006906000000000000000000000A
:1008100001F0FF01102A2BDB10F0070F08D010F8B1
:10082000013B013A8B422DD010F0070F42B3F6D1B5
:10083000F0B441EA012141EA014122F007047FF0CE
:1008400000070023F0E80256083C85EA010586EA25
:10085000010685FA47F5A3FA87F586FA47F6A5FA61
:1008600087F68EB9EED1F0BC01F0FF0102F007026D
:1008700032B110F8013B013A83EA010313B1F8D118
:100880000020704701387047002D06BF35460338F9
:10089000073815F0010F07D1013015F4807F02BF32
:1008A000013015F4C03F0130F0BC0138704700BF83
:1008B000844641EA000313F003036DD1403A41D36B
:1008C00051F8043B40F8043B51F8043B40F8043B2A
:1008D00051F8043B40F8043B51F8043B40F8043B1A
:1008E00051F8043B40F8043B51F8043B40F8043B0A
:1008F00051F8043B40F8043B51F8043B40F8043BFA
:1009000051F8043B40F8043B51F8043B40F8043BE9
:1009100051F8043B40F8043B51F8043B40F8043BD9
:1009200051F8043B40F8043B51F8043B40F8043BC9
:1009300051F8043B40F8043B51F8043B40F8043BB9
:10094000403ABDD2303211D351F8043B40F8043B59
:1009500051F8043B40F8043B51F8043B40F8043B99
:1009600051F8043B40F8043B103AEDD20C3205D369
:1009700051F8043B40F8043B043AF9D2043208D061
:10098000D2071CBF11F8013B00F8013B01D30B88D3
:1009900003806046704700BF082A13D38B078DD0B1
:1009A00010F003038AD0C3F10403D21ADB071CBF83
:1009B00011F8013B00F8013B80D331F8023B20F8ED
:1009C000023B7BE7043AD9D3013A11F8013B00F826
:1009D000013BF9D20B7803704B7843708B788370AE
:1009E00060467047000000000000000000000000AA
:1009F00000000000000000000000000000000000F7
:100A0000A2EB0300704700BF02780B78012A28BFD1
:100A10009A42F5D16DE9044540EA0104CDE9026747
:100A20006FF0000C4FEA447212B380EA010414F034
:100A3000070F6AD100F0070420F0070004F0030557
:100A400021F007014FEAC505F0E8042314F0040F74
:100A5000F1E804670CFA05F462EA040266EA0406A7
:100A60000AD063EA0403624667EA0407664603E0C5
:100A7000F0E80423F1E8046782FA4CF582EA060400
:100A8000A4FA8CF46CBB83FA4CF583EA0705A5FA4B
:100A90008CF595B950E9022351E9026782FA4CF5C9
:100AA00082EA0604A4FA8CF483FA4CF583EA07057B
:100AB000A5FA8CF52543DBD09CB92DBAB5FA85F49F
:100AC00024F0070427FA04F1DDE9026723FA04F3AE
:100AD00003F0FF0001F0FF01FDE80445A0EB010079
:100AE000704724BAB4FA84F424F0070426FA04F117
:100AF000DDE9026722FA04F202F0FF0001F0FF01D3
:100B0000FDE80445A0EB0100704714F0030F3CD151
:100B100010F0030428D150F8082B51F8083B82FA52
:100B20004CF582EA0305A5FA8CF55DB950F8042C62
:100B300051F8043C82FA4CF582EA0305A5FA8CF5DB
:100B4000002DE8D02DBAB5FA85F424F0070423FA75
:100B500004F122FA04F202F0FF0001F0FF01FDE8C7
:100B60000445A0EB010070474FEAC40420F00300E5
:100B700050F8082B21F0030151F8083B0CFA04F45B
:100B800062EA040263EA0403C9E710F003041AD01E
:100B9000A1EB040120F00300E40750F8042B06D079
:100BA0000FD28B785FFAA2F4E41A06D12BB1CB787E
:100BB0005FFAB2F4E41A00D11BB920465DF8104B7D
:100BC000704701F1040150F8042BCC0721F0030118
:100BD00051F8043B48D824D222F07F4482FA4CF5E5
:100BE00094EA1325A5FA8CF50AD165B951F8043BAE
:100BF00084EA0204B4EB036F0ED150F8042BEBE748
:100C00004FEA132355E035F07F454DD10878FDE8D4
:100C10000445C0F1000070474FEA126203F0FF0381
:100C200047E002EA1C4482FA4CF594EA1345A5FA1F
:100C30008CF50AD165B951F8043B84EA0204B4EB9F
:100C4000034F0CD150F8042BEBE74FEA134330E08D
:100C500015EA1C4528D10B884FEA124229E04FEAD9
:100C6000124203EA1C4324E002F0FF0482FA4CF52E
:100C700094EA1365A5FA8CF50AD165B951F8043BDD
:100C800084EA0204B4EB032F09D150F8042BEBE7FC
:100C90004FEA13630DE015F0FF0F05D10B684FEA23
:100CA000122223F07F4304E04FF00000FDE80445EA
:100CB000704712BA1BBA82FA4CF482EA0304A4FA0F
:100CC0008CF5B5FA85F402FA04F203FA04F34FEA5C
:100CD0001260FDE80445A0EB1360704700000000BF
:100CE0000000000000000000000000000000000004
:100CF00000000000000000000000000000000000F4
:100D000090F800F06DE9024520F007016FF0000C4B
:100D100010F0070491F820F040F049804FF00004F3
:100D20006FF00700D1E9002391F840F000F10800CE
:100D300082FA4CF2A4FA8CF283FA4CF3A2FA8CF306
:100D40004BBBD1E9022382FA4CF200F10800A4FA6D
:100D50008CF283FA4CF3A2FA8CF3E3B9D1E90423C1
:100D600082FA4CF200F10800A4FA8CF283FA4CF3F8
:100D7000A2FA8CF37BB9D1E9062301F1200182FAB2
:100D80004CF200F10800A4FA8CF283FA4CF3A2FAB8
:100D90008CF3002BC6D0002A04BF04301A4612BAC6
:100DA000B2FA82F2FDE8024500EBD2007047D1E9C9
:100DB000002304F00305C4F100004FEAC50514F058
:100DC000040F91F840F00CFA05F562EA05021CBF29
:100DD00063EA050362464FF00004A9E781F0004191
:100DE00002E000BF83F0004330B54FEA41044FEA10
:100DF000430594EA050F08BF90EA020F1FBF54EAAB
:100E0000000C55EA020C7FEA645C7FEA655C00F046
:100E1000E2804FEA5454D4EB5555B8BF6D420CDD17
:100E20002C4480EA020281EA030382EA000083EA9A
:100E3000010180EA020281EA0303362D88BF30BD3A
:100E400011F0004F4FEA01314FF4801C4CEA113190
:100E500002D0404261EB410113F0004F4FEA0333EF
:100E60004CEA133302D0524263EB430394EA050F7A
:100E700000F0A780A4F10104D5F1200E0DDB02FAE9
:100E80000EFC22FA05F2801841F1000103FA0EF27D
:100E9000801843FA05F359410EE0A5F120050EF143
:100EA000200E012A03FA0EFC28BF4CF0020C43FA74
:100EB00005F3C01851EBE37101F0004507D54FF081
:100EC000000EDCF1000C7EEB00006EEB0101B1F5D1
:100ED000801F1BD3B1F5001F0CD349085FEA300017
:100EE0004FEA3C0C04F101044FEA445212F5800F22
:100EF00080F09A80BCF1004F08BF5FEA500C50F1BF
:100F0000000041EB045141EA050130BD5FEA4C0CA1
:100F1000404141EB0101013C28BFB1F5801FE9D2FE
:100F200091F0000F04BF01460020B1FA81F308BF21
:100F30002033A3F10B03B3F120020CDA0C3208DDED
:100F400002F1140CC2F10C0201FA0CF021FA02F1C8
:100F50000CE002F11402D8BFC2F1200C01FA02F138
:100F600020FA0CFCDCBF41EA0C019040E41AA2BF5D
:100F700001EB0451294330BD6FEA04041F3C1CDA25
:100F80000C340EDC04F11404C4F1200220FA04F045
:100F900001FA02F340EA030021FA04F345EA0301EF
:100FA00030BDC4F10C04C4F1200220FA02F001FAB1
:100FB00004F340EA0300294630BD21FA04F0294633
:100FC00030BD94F0000F83F4801306BF81F48011CC
:100FD0000134013D4EE77FEA645C18BF7FEA655C3F
:100FE00029D094EA050F08BF90EA020F05D054EA11
:100FF000000C04BF1946104630BD91EA030F1EBF16
:101000000021002030BD5FEA545C05D14000494119
:1010100028BF41F0004130BD14F580043CBF01F50C
:10102000801130BD01F0004545F0FE4141F47001F2
:101030004FF0000030BD7FEA645C1ABF19461046CD
:101040007FEA655C1CBF0B46024650EA013406BFCE
:1010500052EA033591EA030F41F4002130BD00BF8D
:1010600090F0000F04BF0021704730B54FF480644A
:1010700004F132044FF000054FF0000150E700BFCB
:1010800090F0000F04BF0021704730B54FF480642A
:1010900004F1320410F0004548BF40424FF0000117
:1010A0003EE700BF42004FEAE2014FEA31014FEA5A
:1010B00002701FBF12F07F4393F07F4F81F06051A9
:1010C000704732F07F4208BF704793F07F4F04BFF4
:1010D00041F40021704730B54FF4607401F00045D1
:1010E00021F000411CE700BF50EA010208BF704731
:1010F00030B54FF000050AE050EA010208BF704722
:1011000030B511F0004502D5404261EB41014FF48A
:10111000806404F132045FEA915C3FF4D8AE4FF092
:1011200003025FEADC0C18BF03325FEADC0C18BF75
:10113000033202EBDC02C2F1200300FA03FC20FAC6
:1011400002F001FA03FE40EA0E0021FA02F1144413
:10115000BDE600BF70B54FF0FF0C4CF4E06C1CEA2C
:1011600011541DBF1CEA135594EA0C0F95EA0C0F9D
:1011700000F0DEF82C4481EA030621EA4C5123EA10
:101180004C5350EA013518BF52EA033541F480113F
:1011900043F4801338D0A0FB02CE4FF00005E1FBF2
:1011A00002E506F00042E0FB03E54FF00006E1FB3C
:1011B00003569CF0000F18BF4EF0010EA4F1FF047F
:1011C000B6F5007F64F5407404D25FEA4E0E6D41BF
:1011D00046EB060642EAC62141EA55514FEAC520D0
:1011E00040EA5E504FEACE2EB4F1FD0C88BFBCF54C
:1011F000E06F1ED8BEF1004F08BF5FEA500E50F1FD
:10120000000041EB045170BD06F0004646EA0101C2
:1012100040EA020081EA0301B4EB5C04C2BFD4EBF4
:101220000C0541EA045170BD41F480114FF0000EED
:10123000013C00F3AB8014F1360FDEBF002001F05B
:10124000004170BDC4F10004203C35DA0C341BDCD5
:1012500004F11404C4F1200500FA05F320FA04F0A7
:1012600001FA05F240EA020001F0004221F00041DB
:1012700010EBD37021FA04F642EB06015EEA430E4E
:1012800008BF20EAD37070BDC4F10C04C4F120057E
:1012900000FA04F320FA05F001FA04F240EA020031
:1012A00001F0004110EBD37041F100015EEA430E02
:1012B00008BF20EAD37070BDC4F1200500FA05F222
:1012C0004EEA020E20FA04F301FA05F243EA0203A1
:1012D00021FA04F001F0004121FA04F220EA0200B0
:1012E00000EBD3705EEA430E08BF20EAD37070BDF6
:1012F00094F0000F0FD101F00046400041EB0101D6
:1013000011F4801F08BF013CF7D041EA060195F0B7
:10131000000F18BF704703F00046520043EB030371
:1013200013F4801F08BF013DF7D043EA060370475E
:1013300094EA0C0F0CEA135518BF95EA0C0F0CD069
:1013400050EA410618BF52EA4306D1D181EA0301AF
:1013500001F000414FF0000070BD50EA410606BFA9
:101360001046194652EA430619D094EA0C0F02D1EE
:1013700050EA013613D195EA0C0F05D152EA033633
:101380001CBF104619460AD181EA030101F0004151
:1013900041F0FE4141F470014FF0000070BD41F09A
:1013A000FE4141F4780170BD70B54FF0FF0C4CF474
:1013B000E06C1CEA11541DBF1CEA135594EA0C0F93
:1013C00095EA0C0F00F0A7F8A4EB050481EA030EE0
:1013D00052EA03354FEA013100F088804FEA0333C7
:1013E0004FF0805545EA131343EA12634FEA022295
:1013F00045EA111545EA10654FEA00260EF0004156
:101400009D4208BF964244F1FD0404F5407402D2A7
:101410005B084FEA3202B61A65EB03055B084FEA38
:1014200032024FF480104FF4002CB6EB020E75EB35
:10143000030E22BFB61A754640EA0C005B084FEA5D
:101440003202B6EB020E75EB030E22BFB61A7546DA
:1014500040EA5C005B084FEA3202B6EB020E75EB25
:10146000030E22BFB61A754640EA9C005B084FEA9D
:101470003202B6EB020E75EB030E22BFB61A7546AA
:1014800040EADC0055EA060E18D04FEA051545EA99
:1014900016754FEA06164FEAC30343EA52734FEA42
:1014A000C2025FEA1C1CC0D111F4801F0BD141EABB
:1014B00000014FF000004FF0004CB6E711F4801F20
:1014C00004BF01430020B4F1FD0C88BFBCF5E06F00
:1014D0003FF6AFAEB5EB030C04BFB6EB020C5FEA10
:1014E000500C50F1000041EB045170BD0EF0004E65
:1014F0004EEA113114EB5C04C2BFD4EB0C0541EA97
:10150000045170BD41F480114FF0000E013C90E693
:1015100045EA060E8DE60CEA135594EA0C0F08BF57
:1015200095EA0C0F3FF43BAF94EA0C0F0AD150EA56
:1015300001347FF434AF95EA0C0F7FF425AF1046E9
:1015400019462CE795EA0C0F06D152EA03353FF411
:10155000FDAE1046194622E750EA410618BF52EA8E
:1015600043067FF4C5AE50EA41047FF40DAF52EA62
:1015700043057FF4EBAE12E74FF0FF3C06E000BFFF
:101580004FF0010C02E000BF4FF0010C4DF804CD0C
:101590004FEA410C7FEA6C5C4FEA430C18BF7FEACC
:1015A0006C5C1BD001B050EA410C0CBF52EA430CFA
:1015B00091EA030F02BF90EA020F0020704710F17A
:1015C000000F91EA030F58BF994208BF90422CBF09
:1015D000D8176FEAE37040F0010070474FEA410C02
:1015E0007FEA6C5C02D150EA013C07D14FEA430C20
:1015F0007FEA6C5CD6D152EA033CD3D05DF8040B91
:10160000704700BF8446104662468C4619466346C2
:1016100000E000BF01B5FFF7B7FF002848BF10F199
:10162000000F01BD4DF808EDFFF7F4FF0CBF0120DE
:1016300000205DF808FB00BF4DF808EDFFF7EAFF5A
:1016400034BF012000205DF808FB00BF4DF808ED15
:10165000FFF7E0FF94BF012000205DF808FB00BF0A
:101660004DF808EDFFF7CEFF94BF012000205DF894
:1016700008FB00BF4DF808EDFFF7C4FF34BF0120A1
:1016800000205DF808FB00BF4FEA410C7FEA6C5C6C
:1016900002D150EA013C0AD14FEA430C7FEA6C5C6C
:1016A00002D152EA033C02D14FF0000070474FF0E4
:1016B000010070474FEA410212F5001215D211D510
:1016C0006FF47873B3EB625212D94FEAC12343F03F
:1016D000004343EA505311F0004F23FA02F018BFC1
:1016E000404270474FF00000704750EA013005D18A
:1016F00011F0004008BF6FF0004070474FF000004D
:10170000704700BF4FEA4102B2F1E04324BFB3F596
:10171000001CDCF1FE5C0DD901F0004C4FEAC00268
:101720004CEA5070B2F1004F40EB830008BF20F04C
:101730000100704711F0804F21D113F13872BCBF06
:1017400001F00040704741F480114FEA5252C2F15B
:101750001802C2F1200C10FA0CF320FA02F018BFA4
:1017600040F001004FEAC1234FEAD32303FA0CFCF7
:1017700040EA0C0023FA02F34FEA4303CCE77FEA86
:10178000625307D150EA01331EBF4FF0FE4040F4D0
:101790004000704701F0004040F0FE4040F400007F
:1017A000704700BF7BB972B90029BEBF00204FF05F
:1017B000004106E008BF00281CBF6FF000414FF059
:1017C000FF3000F0BFB9ADF1080C6DE904CE00297F
:1017D00009DB002B1ADB00F04DF8DDF804E0DDE951
:1017E000022304B07047404261EB4101002B1BDB38
:1017F00000F040F8DDF804E0DDE9022304B04042E7
:1018000061EB4101524263EB43037047524263EB89
:10181000430300F02FF8DDF804E0DDE9022304B013
:10182000404261EB41017047524263EB430300F0D9
:1018300021F8DDF804E0DDE9022304B0524263EB55
:101840004303704753B94AB9002908BF00281CBF99
:101850004FF0FF314FF0FF3000F074B9ADF1080CDC
:101860006DE904CE00F006F8DDF804E0DDE90223BE
:1018700004B070472DE9F047089D04468E46002BC2
:101880004DD18A42944669D9B2FA82F252B101FA34
:1018900002F3C2F1200120FA01F10CFA02FC41EA44
:1018A000030E94404FEA1C48210CBEFBF8F61FFAC9
:1018B0008CF708FB16E341EA034306FB07F1994264
:1018C0000AD91CEB030306F1FF3080F01F81994217
:1018D00040F21C81023E63445B1AA4B2B3FBF8F0F1
:1018E00008FB103344EA034400FB07F7A7420AD978
:1018F0001CEB040400F1FF3380F00A81A74240F2A0
:1019000007816444023840EA0640E41B00261DB10A
:10191000D4400023C5E900433146BDE8F0878B423F
:1019200009D9002D00F0EF800026C5E900013046FE
:101930003146BDE8F087B3FA83F6002E4AD18B42D8
:1019400002D3824200F2F980841A61EB0303012082
:101950009E46002DE0D0C5E9004EDDE702B9FFDE6E
:10196000B2FA82F2002A40F09280A1EB0C014FEA19
:101970001C471FFA8CFE0126200CB1FBF7F307FB76
:10198000131140EA01410EFB03F0884208D91CEB19
:10199000010103F1FF3802D2884200F2CB804346B6
:1019A000091AA4B2B1FBF7F007FB101144EA014495
:1019B0000EFB00FEA64508D91CEB040400F1FF3124
:1019C00002D2A64500F2BB800846A4EB0E0440EA12
:1019D00003409CE7C6F12007B34022FA07FC4CEA1B
:1019E000030C20FA07F401FA06F31C43F9404FEA0E
:1019F0001C4900FA06F3B1FBF9F8200C1FFA8CFE23
:101A000009FB181140EA014108FB0EF0884202FA76
:101A100006F20BD91CEB010108F1FF3A80F0888037
:101A2000884240F28580A8F102086144091AA4B2F4
:101A3000B1FBF9F009FB101144EA014100FB0EFE75
:101A40008E4508D91CEB010100F1FF346CD28E45A4
:101A50006AD90238614440EA0840A0FB0294A1EB35
:101A60000E01A142C846A64656D353D05DB1B3EB92
:101A7000080261EB0E0101FA07F722FA06F3F140C2
:101A80001F43C5E9007100263146BDE8F087C2F169
:101A90002003D8400CFA02FC21FA03F391400143E1
:101AA0004FEA1C471FFA8CFEB3FBF7F007FB10361A
:101AB0000B0C43EA064300FB0EF69E4204FA02F4C6
:101AC00008D91CEB030300F1FF382FD29E422DD919
:101AD000023863449B1B89B2B3FBF7F607FB16334E
:101AE00041EA034106FB0EF38B4208D91CEB0101CE
:101AF00006F1FF3816D28B4214D9023E6144C91A4E
:101B000046EA004638E72E46284605E70646E3E65D
:101B10001846F8E64B45A9D2B9EB020864EB0C0E67
:101B20000138A3E74646EAE7204694E74046D1E776
:101B3000D0467BE7023B614432E7304609E7644424
:101B4000023842E7704700BF00207047002070470E
:101B500000207047002070470020704770470368DE
:101B600053F8683C184470477047036853F8743C56
:101B70001844704708B5024800F0D4FD002008BDA5
:101B8000600C002010B50446006808B114F04AFD4E
:101B9000204610BD70B5044621BB1368236019BBF5
:101BA000506953F8843CE05009BB9069234643F8E0
:101BB000840FF1B902F10C000568C4F8845046683E
:101BC00055F8840C1E50B1B904321368236053F8E1
:101BD000843C5268E2508B0702D5204611F086FF04
:101BE000204670BD054BD9E704480023DBE70448D5
:101BF000DCE70448E0E7044AE7E700BF78D30100E8
:101C000078D40100E4D20100DCD2010000220221DC
:101C1000FFF7C0BFA0F18400F8E7D0F800C0ACF136
:101C2000240CDCF800C06044F0E710B50446FFF770
:101C3000EDFF2046882114F0F3FC204610BDA0F1F2
:101C40008400F2E7D0F800C0ACF1240CDCF800C04E
:101C50006044EAE713B504460F4BC4F8903100F531
:101C6000C870019013F052FE019813F0D5FE04F5F0
:101C7000A670FFF787FF04F58E70FFF783FF2046FD
:101C8000064B40F88C3F11F061FE2046FFF7BEFF87
:101C9000204602B010BD00BF78F50100C8F4010075
:101CA0000A460021FFF776BF13B50A4C43F2010341
:101CB000009341F2160243F2030342F20C01204664
:101CC00000F06CF8044A0549204602B0BDE8104017
:101CD00014F058BA600C002000000020551C0000D1
:101CE00010B500F59C7420460FF018FAB0FA80F198
:101CF00049092046BDE810400FF0F2B970B5144C08
:101D00001449062305463426E01C6370267016F03D
:101D1000ADFB114904F1080016F0A8FB05F5A6700B
:101D200012F078F9014604F1120016F09FFB2846E4
:101D300011F060FA014604F1200016F097FBD5F887
:101D400088000368324621461B69BDE87040184789
:101D5000380F0020F4D40100F8D4010013B5044674
:101D6000054BA3611830019013F0D0FD019813F0DA
:101D700053FE204602B010BD78F5010010B4D0E942
:101D800001320168541001EB6200D20748BF0A59C2
:101D90005DF8044B48BFD358184700002DE9F347BE
:101DA0000446884617461E460FF040FF019011F08A
:101DB000BFF83549019A216003463449204611F0A5
:101DC00013FB3348206000F580700025C4F88400C0
:101DD00004F18C0012F0C0FA04F59A791122294618
:101DE000C4F81C5104F5907016F046F804F59C7A7E
:101DF00041464846A4F83251C4F834510CF082FAF6
:101E000004F59E7839465046C4F838510CF07AFAF9
:101E100004F5A07731464046C4F83C510CF06BFA0B
:101E20000A99C4F8405138460CF065FA0826032395
:101E3000C4E9516311222946C4F84C5104F5A87035
:101E400016F01AF8A4F8625104F5C87013F0AAFD50
:101E5000294648460FF044F9294650460FF040F90C
:101E60004046022113F005FD0221384613F001FD22
:101E700084F87D51304614F0A7FBC4F88001204659
:101E800002B0BDE8F08700BFE4F30100DCD201003E
:101E900078D30100D1F80330012B10B5044608D0E7
:101EA000022B08D023B9054800F02AFDC4F86801C8
:101EB00010BD0348F8E70348F6E700BF300E0020E6
:101EC000880E0020E00E002070B53D4D00236B70A1
:101ED000D1F803301B22022B04460E462A7009D982
:101EE0000623D0F88800AB7003681B692946BDE85B
:101EF00070401847FFF7CEFFD6F80330012B4BD0C8
:101F0000022B50D04BB92F4800F0F6FCC4F86C01FE
:101F10002C4800F0F3FCC4F87401D4F86831C5F81B
:101F2000033004F59E70D4F86431C5F807300FF023
:101F3000F5F8C5F8130004F5A0700FF0EFF8C5F838
:101F40001700D4F86C01FFF79BF81BA3D3E900231B
:101F5000FFF72AFAFFF7D6FBD4F86431C5F80B0077
:101F6000032B27D19FED187AD4ED5D7AC7EE277A3F
:101F700017EE900AFFF796F80FA3D3E90023FFF7B7
:101F800013FAFFF7BFFBC5F80F00D4F888000C491F
:101F900003681B221B69AAE70C4800F0ADFCC4F8DB
:101FA0006C010A48B5E70A4800F0A6FCC4F86C01C9
:101FB0000748AEE70020E6E758CA32C4715C91409A
:101FC0006C0F0020300E002000007042880E0020B0
:101FD000E00E00200B461146D3F80330012B05D04C
:101FE000022B05D033B9044800F043BC0348FBE79B
:101FF0000348F9E7704700BF300E0020880E00202C
:10200000E00E002010B4D0F848410C708A70D0F86F
:1020100088301A681469D0F84821184623465DF8BC
:10202000044B184738B5D1F80730DFED177A07EEC3
:10203000103AB4EEE77AF1EE10FA05460C4606D9EE
:10204000DFED127AB4EEE77AF1EE10FA03DD012249
:102050002146284604E0D1F80320022A04D90622AA
:10206000BDE83840FFF7CEBF012AC0F874311946E9
:1020700006D0022A06D0064800F0F7FB0022E7E768
:102080000448F9E70448F7E77CF2303B713D8A3EAB
:10209000300E0020880E0020E00E0020D1F8033022
:1020A000022B70B504460D4606D90622FFF7AAFF9B
:1020B000002384F87C3170BD012B11D0022B11D08C
:1020C000104800F0D9FB84F87D0194F87D615EB979
:1020D000052229462046FFF795FF84F87C61EAE750
:1020E0000948EEE70948ECE70323C4F8643101230B
:1020F00084F87C31294620460022BDE87040FFF775
:1021000081BF00BF300E0020880E0020E00E0020AE
:1021100010B586B00446684680E80C0006A800E9C1
:102120000C00039110E90700034BE36084E807000B
:10213000204606B010BD00BF7D1D000030B504462E
:102140008BB0C0F86411032927D8DFE801F018022A
:102150001A18154B144A049306AD0023014628466D
:102160000593FFF7D5FF114A0023CDE90223099B10
:10217000009395E80E0004F5C87013F0F0FB0BB067
:1021800030BD00F5C87013F0C1FB002104F59C7050
:102190000BB0BDE830400EF0A3BF00F5C87013F0DF
:1021A000B5FB0121F2E700BFE11C000020A1070000
:1021B00038B5D1F80330022B04460D4604D9062267
:1021C000BDE83840FFF71EBF012B1FD0022B1FD0E8
:1021D000104800F085FB204600222946FFF7FAFE52
:1021E0000C4800F08DFB58B90B4800F089FB38B95A
:1021F0000A4800F085FB18B902212046FFF79EFF30
:102200000022C4F86C2129462046D9E70248E0E7BD
:102210000248DEE7300E0020880E0020E00E00208D
:1022200070B5D0F870510446BDB3012D44D00025DF
:1022300004F5C27631462046FFF72CFED4F868310B
:10224000012B03D004F5C87013F060FB002D4CD0B7
:1022500004F5C87013F05AFBD4F88751012D40D013
:10226000022D40D03DB9214800F03AFB0022314612
:102270002046FFF7AFFE1D4800F042FBA8BB1C48FC
:1022800000F03EFB88BB1B4800F03AFB68BB2046D1
:102290000221BDE87040FFF751BF00F59E700EF0BF
:1022A0003DFF0028C4DC04F5A0700EF037FF0028C5
:1022B000CCBF00250125BBE7D0F87831012B00F514
:1022C000A0760CD130460EF029FF0028CCBF0025A7
:1022D000012530460EF022FFC4F87801A8E700255A
:1022E000F7E70348C0E70348BEE770BD300E0020A3
:1022F000880E0020E00E002070B5D1F80330022BCC
:102300008AB004460D4605D906220AB0BDE87040E1
:10231000FFF778BE00F59E700EF000FF28B3286826
:10232000C4F8840104F5C276AA88AB79A4F88821A0
:102330003146B37101222046FFF74CFED5F8033039
:10234000012B1FD0022B1FD023B91F4800F094FA95
:1023500084F87D0194F87D21C2B931462046FFF70B
:1023600039FE052229462046CFE704F5A0700EF07D
:10237000D5FE0028D3D1002229462046FFF742FE91
:102380000AB070BD1148E1E71148DFE703230122DD
:10239000C4F86431C4F8782100230E4AC4F87031BF
:1023A00006AE21463046CDE90423FFF7B1FE0A4AC6
:1023B0000023CDE90223099B009396E80E0004F563
:1023C000C87013F0CCFAD6E7300E0020880E00203B
:1023D000E00E002021220000A086010030B5D1F8D7
:1023E0000330022B8BB004460D4605D906220BB0F4
:1023F000BDE83040FFF706BE012B0DD0022B0DD0FB
:10240000204800F039FA84F87D0194F87D313BB919
:10241000052229462046EAE71B48F2E71B48F0E779
:102420002868C4F88401AB79AA8884F88A31032328
:10243000C4F864310123C4F87031A4F8882104F58C
:10244000A0700EF06BFE2946C4F8780100222046E9
:10245000FFF7D8FD06AD0E4B0493214600230C4A2E
:1024600005932846FFF754FE0A4A0023CDE90223CC
:10247000099B009395E80E0004F5C87013F06FFAFD
:102480000BB030BD300E0020880E0020E00E002082
:1024900021220000A0860100F0B5D1F80330022B04
:1024A0008BB004460D4605D906220BB0BDE8F040BE
:1024B000FFF7A8BD00F5C2760868C4F884018A88D1
:1024C0008B79A4F888213146B37101222046FFF7A9
:1024D00081FDD5F80330012B12D0022B12D023B985
:1024E0001E4800F0C9F984F87D0194F87D215AB99D
:1024F00031462046FFF76EFD052229462046D4E7E7
:102500001748EEE71748ECE70323C4F864310123CA
:10251000C4F8703104F5A0700EF000FE002706AE7E
:10252000114BC4F87801049321463B460E4A0597A7
:102530003046FFF7EDFD0D4A0023CDE90223099B4C
:10254000009396E80E0004F5C87013F008FA3A46B6
:1025500029462046FFF756FD0BB0F0BD300E002097
:10256000880E0020E00E002021220000A08601003D
:1025700070B5354E354D364C90B0022241F209010E
:10258000304600F055F93046324E2A46214613F0C7
:10259000F9FD42F202020121304600F049F93046CD
:1025A0002D4E2A46214613F0EDFD42F2030241F280
:1025B0001701304600F03CF92A462146304613F018
:1025C000E1FD0022254B009301926C4603CC244B85
:1025D000C3F805102349C3F80100CDE9021203CC6A
:1025E000C3F80E102049C3F80A00CDE9041203CC49
:1025F000C3F817101D49C3F81300CDE9061203CC28
:1026000019621B49D861CDE9081203CCC3F829101F
:102610001849C3F82500CDE90A1203CCC3F83210DB
:102620001549C3F82E00CDE90C1203CCC3F83B10BA
:102630001249C3F83700CDE90E12224603CA1864C6
:10264000596410B070BD00BF300E002000000020A3
:102650005D1D0000880E0020E00E0020C91E000055
:10266000040000209D200000B1210000F92200009C
:10267000DD23000099240000FD1C0000252000003F
:1026800030B593B0044624490022684611F092FC0C
:102690002249002206A811F08DFC214900220CA835
:1026A00011F088FC06AA0CAB6946204610F0F0FD3C
:1026B0000CA8FFF767FA06A8FFF764FA68462546F4
:1026C000FFF760FA204610F03FFD04F5A6712046A2
:1026D00010F024FE55F88C3B53F8840C235820440A
:1026E0005B6F98470146284611F084F841F6AB61CC
:1026F000284611F0BBF80121284611F0C9FC2846F4
:10270000012110F097FF4FF0FF31284613B0BDE8CC
:10271000304010F0ADBF00BF02D5010010D5010060
:102720001ED5010030B50121C1B00446FFF706FDFA
:102730002046FFF7A5FF2C4D01212046FFF7FEFCA8
:10274000002104F18C0011F03BFE0368C4F88800FE
:1027500004F58E711B6C984702212046FFF7EEFCB2
:10276000D4F88800D4F84821036869465B69984723
:1027700000281ADD9DF80020D4F848118A420BD1B8
:102780009DF80130D4F84421934218DB02226946B7
:102790002046FFF737FCE3E7D4F888000368521AB5
:1027A0005B69694498470028EADCD4F8880003682C
:1027B0009B68984701212046FFF7C0FCBCE703EB6C
:1027C000C3032B44D3F80120D3F8050000F0010324
:1027D0000AB9002BDAD0411004EB60000BB163584A
:1027E0009A5869469047BBE70400002010B504469C
:1027F0000EF094FCB0FA80F1490920460EF070FC0E
:1028000020460EF08BFC012802BFA3680133A360B1
:1028100010BD10B4D0E901320168541001EB620020
:10282000D20748BF0A595DF8044B48BFD358184730
:10283000F8B506460025044646F8045B17460BF03B
:1028400061FD3946304665600BF05CFD04F118000F
:1028500013F0A8F8294620460EF042FC30462946DF
:102860000EF03EFC25752046F8BD0123C1600375BE
:10287000704704300EF034BC30B5057D89B0044695
:102880002DB30369012B22D0D0ED037A9FED117A8D
:10289000114A049067EE877AB6EE007A67EE877A7F
:1028A0000023FDEEE77A8360CDE9052317EE903A29
:1028B0004FF47A7283FB0232CDE90232074B009368
:1028C00004AB0ECB183013F04AF8012323612846DD
:1028D00009B030BD00007A44ED2700001328000045
:1028E00010B50446183013F011F80021216120467C
:1028F000BDE810400EF0F4BB80687047C0687047B8
:102900000069704708B5014610B1132001F0ECFED4
:10291000002008BD08B5EFF305832BB9EFF3108352
:1029200013B9EFF3118333B16FF0050000F005FA2E
:102930006FF0050008BDDFF808C000DFFAE700BF50
:1029400005290000EFF310832BB9EFF31180003855
:1029500018BF012070470120704710B520B10378DF
:10296000F32B01D1002906DA6FF0030102F01AFA05
:102970006FF0030010BD0C3050E8003F23EA010265
:1029800040E8002404B1F7E71846F3E738B50546F8
:10299000A0B1846802686CB114F0030302D1C1686D
:1029A0000F2926D86FF00801002002F0FBF900245F
:1029B000204638BDC368002BF4D11546104BD3F820
:1029C000900078B100F083FC0446A0B10123A3700D
:1029D0000023C4E90233F322094B2270094A6560DF
:1029E0005A66E5E7D3F880000122102100F0FCFBD5
:1029F000EAE71546EBE76FF0040102F0D3F9D7E7F9
:102A00004C000020E12A000070B5054610B10378A3
:102A1000F32B07D028466FF0030102F0C3F96FF0E3
:102A2000030070BD836863B1284601F05DFC00229D
:102A30006FF0020101F008FDA8680028F4D101F050
:102A4000D7FCAB78002613F001032E700FD0094B92
:102A5000D3F89040294624B1204600F052FC30467D
:102A6000DFE7D3F8800000F0F3FB2046D9E71846F3
:102A7000D7E700BF4C000020930710B502F0010417
:102A800022D400F10C0384B153E8000F00EA0102E4
:102A90008A4203D0BFF32F8F002005E020EA010215
:102AA00043E8002404B1EFE710BD53E8000F0842EB
:102AB00003D1BFF32F8F002005E020EA010243E895
:102AC000002404B1F1E7EFE7C06801EA00031CB19C
:102AD0008B4218BF0020E7E7002B08BF0020E3E788
:102AE000F8B58468054604B9F8BD94F82320616AF6
:102AF000A7682846FFF7C0FF064638B1204601F018
:102B0000FCFB00223146204601F09EFC3C46EAE7F1
:102B1000F8B50D4617461E46044620B10378F32B40
:102B200001D1002907DA20466FF0030102F03AF9DB
:102B30006FF00300F8BDFFF79FFF0028FAD186B1C0
:102B40003146432001F0D0FD40B1074B5E6920467D
:102B5000314601F0B7FB756286F823706FF0010013
:102B6000E8E76FF00200E5E74C0000202DE9F041B6
:102B7000064620B10378F32B01D1002909DA6FF062
:102B80000301304602F00EF96FF003052846BDE858
:102B9000F08100F10C0353E8002F42EA010543E8FD
:102BA000005000B1F7E7B4681CB9204601F020FCE2
:102BB000ECE794F82320616AD4F808803046FFF7E8
:102BC0005BFF074678B194F823309B0756BF656AD0
:102BD000054620EA0505204601F08FFB0022394614
:102BE000204601F031FC4446DEE7000008B502460D
:102BF000EFF3058333B100206FF0050102F0D2F846
:102C0000002008BDFFF79EFE0028F4D1DFF808C0C1
:102C1000104600DFF5E700BF8D29000038B50246F9
:102C20000D46EFF305834BB192B96FF003011046E7
:102C300002F0B8F86FF00304204638BDFFF782FEBB
:102C40000028F1D1DFF830C0104600DF0446F3E77A
:102C50001378F32BE9D1002DE7DB02F10C0353E8E5
:102C6000001F41EA050443E8004000B1F7E71046C1
:102C700001F03CFAE0E700BF6D2B000010B5024602
:102C80000C46EFF305832BB121461046BDE81040FA
:102C9000FFF763BEFFF756FE0028F5D11046DFF8B8
:102CA00008C000DF10BD00BF5B290000F8B5044676
:102CB0000E4617461D46EFF3058343B18CB92046F7
:102CC0006FF0030102F06EF86FF00300F8BDFFF73C
:102CD00039FE0028F2D1DFF82CC020462B4600DF59
:102CE000F4E72378F32BEAD1002DE8D1002EE6DBC0
:102CF0003A4631462046FFF7BFFE002808BF6FF076
:102D00000200E3E7112B000008B50246EFF305834C
:102D10003BB110466FF0050102F044F86FF005007A
:102D200008BDFFF70FFE0028F3D1DFF808C01046FA
:102D300000DFF5E7092A000070477047EFF31083C2
:102D40002BB9EFF31180003818BF01207047012024
:102D500070470000014BD868704700BF4C0000204E
:102D600008B5094B1A7A022A08D0032A0AD04FF074
:102D7000FF3002F00BF84FF0FF3002E003221A722E
:102D8000002008BD0120FCE74C00002070B5484C35
:102D9000217A012900F08A8031B14FF0FF3001F033
:102DA000F5FF4FF0FF3070BD424D9C2204F108004A
:102DB00015F062F8D5E90B61EB68E3652B8AA4F89E
:102DC00054303046AB68236400F0F6F908B1C4F81B
:102DD0008060D5E90561304600F0EEF908B9D4F815
:102DE00080606667D5E90761304600F0E5F908B90B
:102DF000D4F88060A667D5E90961304600F0DCF9B7
:102E000008B9D4F88060E6676E6B3EB1D6E902235C
:102E10003168304600F03AFAC4F88460AE6B3EB1D7
:102E2000D6E902233168304600F030FAC4F88860F1
:102E3000EE6B3EB1D6E902233168304600F026FA47
:102E4000C4F88C602E6C3EB1D6E90223316830465E
:102E500000F01CFAC4F890606E6C3EB1D6E9022313
:102E60003168304600F012FAC4F89460AE6C3EB19E
:102E7000D6E902233168304600F008FAC4F89860B9
:102E8000EE6C3EB1D6E902233168304600F0FEF91F
:102E9000C4F89C602D6D3DB1D5E902232968284610
:102EA00000F0F4F9C4F8A0500123237200207AE75F
:102EB0004C00002050CF010070B5264D2B7A012B1D
:102EC00007D06FF0060001F061FF4FF0FF3420469D
:102ED00070BD01F00FFD10B94FF0FF30F3E71E4A4F
:102EE0001E4E1F497068FF2382F8223092F822306C
:102EF000D26863F0FF03DB4314BFB3FA83F32023EC
:102F0000C3F12003C2F30222934298BF531CFE2256
:102F100002FA03F3104ADBB2D3770EF05DFA0446EF
:102F20000028D9D10EF0AEFA28610EF097FA0D48BC
:102F300001F0DAF901F052FA336813F0010F4FF0A3
:102F4000020303D083F314882B72C0E7032282F3B9
:102F50001488F9E74C00002000ED00E050CF01009C
:102F6000A50500006800002008B50A4B1A7A023A4D
:102F7000012A02D840B1012809D04FF0FF3001F0FA
:102F800005FF4FF0FF3001E002221A7208BD032254
:102F9000FBE700BF4C00002010B5134C237A022B36
:102FA00005D06FF0070001F0F1FE002010BD0EF01B
:102FB0005DFA01236372BFF34F8F0C4A5168C90059
:102FC00042BF4FF000615160A372E36A4BB1D86910
:102FD000636C1BB11B69984228BF184604232372F7
:102FE000E4E74FF0FF30F3E74C00002000ED00E095
:102FF000F8B5214C237A042B05463BD1E368034402
:10300000E360E36A53B106460127DA69B24225D884
:10301000DF61B61A01F094F9E36A13BB636C4BB13C
:1030200001261869A8421FD81E61236D2D1A9847E2
:10303000636CE3B902230020237201F0D9F9002365
:103040006372BFF34F8FA27A22B1A3720B4B4FF082
:1030500080525A60BDE8F8400EF000BA921BDA6167
:10306000DCE7002ED1D1D9E7401B1861E2E7002D43
:10307000D7D1DFE7F8BD00BF4C00002000ED00E035
:103080007047000008B5FFF7FBFFEFF3058333B18E
:103090006FF0050001F07AFE6FF0050008BDFFF744
:1030A0004DFE0028F4D1DFF808C000DFF6E700BFCE
:1030B0008D2D000008B5EFF3058333B16FF00500E7
:1030C00001F064FE6FF0050008BDFFF737FE002831
:1030D000F4D1DFF808C000DFF6E700BFB92E00002A
:1030E00008B5EFF3058333B16FF0050001F04EFE34
:1030F0006FF0050008BDFFF721FE0028F4D1DFF8CE
:1031000008C000DFF6E700BF612D000008B50246E9
:10311000EFF3058333B16FF0050001F037FE6FF078
:10312000050008BDFFF70AFE0028F4D1DFF808C04B
:10313000104600DFF5E700BF692F000008B5EFF388
:1031400005832BB16FF0050001F020FE002008BDC3
:10315000FFF7F4FD0028F5D1DFF804C000DFF6E743
:10316000992F000008B50246EFF305832BB1BDE8A7
:1031700008406FF0050001F009BEFFF7DFFD0028F1
:10318000F5D1DFF808C0104600DF08BDF12F0000C0
:1031900008B5EFF3058313B1054BD86808BDFFF7F9
:1031A000CDFD0028F8D1DFF80CC000DFF6E700BF46
:1031B0004C000020552D000010B598B140EA0103E5
:1031C00013F007030ED117290AD90160083910221C
:1031D0000C18846042600B5081684A60C360012310
:1031E000184610BD0023FBE7F0B5034670B369B382
:1031F00032F003002AD10F3121F0070103F1080654
:10320000344636686568301B25F00305401B814253
:1032100003D930680028F3D1F0BD5F681D680F4402
:103220005F602B44083B5868874288BF5F606368D3
:103230000A431BB9626004F10800EDE723F00303C1
:10324000E018E650426020600830E5E70020E3E740
:1032500010B580B1C1B1A1F1080400F1080300224A
:10326000A34209D1596821F003044168091B416058
:103270003AB95A60012010BD19681A4621B10B46AF
:10328000EEE71B681360F5E70846F4E730B5C0B118
:1032900089B1C2B1CBB10024C0E9014202FB01F403
:1032A0001D190160C360436105611846013904D1ED
:1032B000A21A99500121084630BD8518056028469C
:1032C000F4E70146F7E71146F5E71946F3E710B5CD
:1032D0000346A8B100F1140252E8000F10B9BFF381
:1032E0002F8F04E0016842E8001404B1F4E738B11C
:1032F000043353E8002F511C43E8001404B1F8E7ED
:1033000010BD30B5F0B1C3688B421BD803698B4246
:1033100018D900F114031A680A60BFF35F8F53E8ED
:10332000002F0C689442F6D143E8001505B1F2E78E
:10333000043050E8003F5A1E40E8002101B1F8E790
:10334000002030BD6FF00300FBE7EFF310832BB9D3
:10335000EFF31180003818BF01207047012070473B
:10336000D1E9013223B19A608A681AB1536070477B
:10337000C262F9E7036370472DE9F84F88460746B4
:1033800000B131B96FF00301002001F021FD0024EC
:1033900077E0CE1C26F003060C36B0FA80F104D09C
:1033A000B6FA86F30B441F2BECDD06FB07FAF2B1ED
:1033B00094683CB1A30702D1D368332B05D86FF0D2
:1033C0000801E1E7D368002BF9D1D2E90453D2F820
:1033D00000903DB115F0030B01D19A4554D96FF01F
:1033E0000901D1E7002BFAD11CB19B460CE09146B4
:1033F0001546274BD3F8A000D8B1FFF768FF044665
:10340000A0B14FF0010B35BB214B0022D86F5146C4
:10341000FFF7EAFE0546C0B9BBF1000F06D01C4B12
:10342000D3F8A000214658B1FFF76BFF6FF00401FD
:10343000AAE7D3F8800001223421FFF7D5FEDEE7AA
:10344000D3F88000FFF704FFF0E75246002114F0A4
:1034500013FD4BF0020BFA2323700023C4E9098308
:10346000C4E90B33A36032462B4684F802B0C4F89B
:103470000490394604F10C00FFF708FF044B054A9D
:103480001A672046BDE8F88F002CE4D1B1E700BFF1
:103490004C0000202535000010B500F1280353E84A
:1034A000002F12B9BFF32F8F04E0511E43E8001420
:1034B00004B1F4E70AB9002010BDC06A0122002857
:1034C000F9D0811CD1E84F3FC1E8442F04B1F9E79E
:1034D000DBB2002BF0D08068F1E7036B30B5E3B1CD
:1034E000CD780024DA78AA420FD31A46C1E9012424
:1034F0008AB19160A4B16160283050E8003F5A1C45
:1035000040E8002101B1F8E730BD5A681C46002AA6
:10351000ECD01346E6E7C162ECE7C1E90133C162D2
:103520000163E9E7F8B5877804468FB3C5680146BB
:1035300000272846FFF714FF277005F10C042046EA
:10354000FFF7DFFEAB68002B48D02046FFF7BFFE39
:103550000446002842D0284600F0C6FE3A460646F9
:10356000394600F071FF304600F01AFF6A6A816840
:10357000064604F10C00FDF79BF9F9232370A770B0
:10358000F368E37021462846BDE8F840FFF7A5BF81
:103590008568AB68002BF5D05B78832BF2D1284689
:1035A00000F0A2FE3A460646394600F04DFF30468E
:1035B00000F0F6FE06466A6A806804F10C01FDF729
:1035C00077F9F3680BB1E2781A7000232370214673
:1035D00005F10C00BDE8F840FFF793BEF8BD000010
:1035E0002DE9F0410C4617469846054618B1037878
:1035F000FA2B00D141B928466FF0030101F0E8FB36
:103600006FF00300BDE8F0818368C3B15B78832B62
:1036100015D100F069FE01220646002100F014FFDA
:10362000304600F0BDFE06466A6A80682146FDF716
:103630003FF9F0680028E5D007700020E2E705F1C7
:103640000C00FFF744FE064670B121466A6A0C3052
:10365000FDF72EF90024F9233370B470F77031466A
:103660002846FFF73AFFE8E7B8F1000F10D04146CF
:10367000932001F039F840B1074B2846596900F012
:1036800021FEEFF30983C3E902476FF00100B9E7B8
:103690006FF00200B6E700BF4C0000202DE9F041BA
:1036A0000F4615469846044618B10378FA2B00D108
:1036B00041B920466FF0030101F08AFB6FF003006F
:1036C000BDE8F081FFF7E8FE064600283AD0014643
:1036D0002046FFF745FE626A06F10C013846FDF709
:1036E000E7F80DB1F3782B70002504F10C07357065
:1036F00031463846FFF705FEA3680BB90020DFE727
:103700003846FFF7E4FD06460028F7D0204600F0D3
:10371000EBFD29460746012200F096FE384600F0F0
:103720003FFE626A8168074606F10C00FDF7C0F8AB
:10373000F9233370B570FB68F37031462046FFF70C
:10374000CCFEDBE7B8F1000F10D04146832000F03B
:10375000CBFF40B1074B2046596900F0B3FDEFF3B2
:103760000983C3E902756FF00100A9E76FF0020059
:10377000A6E700BF4C00002010B50446EFF3058318
:1037800033B100206FF0050101F022FB002010BDD5
:10379000FFF7DBFD0028F4D1DFF808C0204600DF8A
:1037A000F5E700BF793300002DE9F04106460F46EA
:1037B00090461C46EFF305834BB196B930466FF047
:1037C000030101F005FB6FF00300BDE8F081FFF796
:1037D000BCFD0028F1D1DFF84CC03046234600DFA5
:1037E000F3E73378FA2BE9D1002FE7D0002CE5D1AD
:1037F00006F10C00FFF76BFD054680B1726A394691
:103800000C30FDF755F8F9232846C5E901762B70F1
:10381000AC7085F8038000F069FC2046D5E76FF0B6
:103820000200D2E7E1350000F8B504460F4616461F
:103830001D46EFF3058343B18CB920466FF00301B9
:1038400001F0C6FA6FF00300F8BDFFF77EFD002817
:10385000F2D1DFF848C020462B4600DFF4E723789A
:10386000FA2BEAD1002FE8D0002DE6D12046FFF751
:1038700013FE054670B100F10C01626A3846FDF78F
:1038800017F80EB1EB7833702846EC6000F02EFC90
:103890000020D9E76FF00200D6E700BF9D36000098
:1038A000EFF310832BB9EFF31180003818BF01201C
:1038B000704701207047000070B5A8B38468D0E954
:1038C00000566CB114F0030302D1C2681B2A1AD847
:1038D0006FF00801002001F06BFA0024204670BD53
:1038E000C368002BF4D1124BD3F8940030B9D3F84D
:1038F000800001221C21FFF777FC01E0FFF7E7FCC5
:10390000044660B10123F522A3700023C4E9023309
:10391000C4E904332270E67065602376DEE76FF059
:10392000040101F045FAD9E705460646DBE700BF8A
:103930004C000020284B70B55D6904460E4635B931
:103940006FF0070101F034FA4FF0FF3070BD10B195
:103950000378F52B07D020466FF0030101F028FA19
:103960006FF00300F2E7037E53B9C0E90353EB6A3B
:10397000436103B11861EC62012323760020E5E77F
:10398000C278D1070DD5C168A9420AD1FF2B06D153
:103990006FF00F0101F00CFA6FF00200D6E701336F
:1039A000EBE7002EF8D093070AD5E06895F92030B0
:1039B00090F920209A4203DA80F8203000F0A6FC2B
:1039C0003146532000F090FE18B12946204600F001
:1039D00079FC6FF00100B9E74C00002038B52F4B9F
:1039E0005A69044632B96FF0070101F0E1F94FF06E
:1039F000FF3038BD10B10378F52B07D020466FF0AB
:103A0000030101F0D5F96FF00300F2E7037E33B94B
:103A10006FF00E0101F0CCF96FF00200E9E7C16828
:103A2000914202D06FF00D01F4E7013BDBB2037667
:103A300033BB43690BB101691961216911B34B6152
:103A4000E3789B0705D592F92110D36AE3B982F890
:103A50002010A3688BB1204600F046FC00220546EA
:103A6000114600F0F1FC00232361EB6AE56063611D
:103A700003B11C610123EC622376002000F0B8FC46
:103A80000020B6E7D362DBE7986820B190F9200008
:103A90008142B8BF01465B69D8E700BF4C000020F7
:103AA00070B5044610B10378F52B07D020466FF0AF
:103AB000030101F07DF96FF0030070BD037ED3B107
:103AC0006369C0680BB122691A6122691AB3536134
:103AD000E3789B070BD590F92130C26AEAB990F9D7
:103AE00020209A4203D080F8203000F00FFCA0681C
:103AF000E0B900F07DFCA078002610F001002670EF
:103B0000DBD0124BD3F894502146C5B12846FFF7BD
:103B1000F8FB3046D1E7C362DAE7916821B191F949
:103B200020108B42B8BF0B465269D7E7204600F001
:103B3000DBFB00226FF0020100F086FCD7E7D3F830
:103B40008000FFF785FB2846B7E700BF4C00002048
:103B50002DE9F0410446002601270CB9BDE8F081AB
:103B6000E378D4F814801B0712D5A36826767BB1BE
:103B7000204600F0B9FB00220546114600F064FC27
:103B8000EB6A6361C4E9035603B11C61EC622776FA
:103B90004446E2E710B4C3789B071AD5C06890F991
:103BA0002130C26A94688C4208BF8C6824B194F9B1
:103BB0002040A342B8BF23465269002AF2D190F9AF
:103BC00020209A4205D080F820305DF8044B00F0A8
:103BD0009DBB5DF8044B704708B50246EFF30583C3
:103BE00033B100206FF0050101F0E2F8002008BDBC
:103BF000FFF756FE0028F4D1DFF808C0104600DFBA
:103C0000F5E700BFB938000008B50246EFF30583B9
:103C10003BB110466FF0050101F0CAF86FF00500E6
:103C200008BDFFF73DFE0028F3D1DFF808C01046BD
:103C300000DFF5E73539000008B50246EFF30583EC
:103C40003BB110466FF0050101F0B2F86FF00500CE
:103C500008BDFFF725FE0028F3D1DFF808C01046A5
:103C600000DFF5E7DD39000008B50246EFF3058314
:103C70003BB110466FF0050101F09AF86FF00500B6
:103C800008BDFFF70DFE0028F3D1DFF808C010468D
:103C900000DFF5E7A13A0000EFF310832BB9EFF353
:103CA0001180003818BF01207047012070470C3088
:103CB000D0E85F3F13B9BFF32F8F04E05A1EC0E86E
:103CC000512F01B1F4E798B2003818BF01207047B6
:103CD00030B500F10C02C189D2E85F3F994202D8A9
:103CE000BFF32F8F04E05C1CC2E8554F05B1F3E72A
:103CF000C0899BB2984294BF0020012030BD0000D3
:103D0000F8B515464FF6FE73421E9A4206460F4618
:103D100001D8884207D26FF00301002001F04EF86D
:103D200000242046F8BD7DB1AC682A6844B114F087
:103D3000030302D1E9680F2922D86FF00801ECE7EC
:103D4000EB68002BF9D11546114BD3F8980080B1E0
:103D5000FFF7BDFA0446A8B10123A3700023F622A1
:103D6000A3600B4B22700B4A6560A781E6819A66BF
:103D7000D7E7D3F8800001221021FFF735FAE9E7F1
:103D80001546EAE76FF0040101F018F8C9E700BF33
:103D90004C000020093E000070B5054610B10378C4
:103DA000F62B07D028466FF0030101F007F86FF0FB
:103DB000030070BD836863B1284600F095FA0022C5
:103DC0006FF0020100F040FBA8680028F4D100F079
:103DD0000FFBAB78002613F001032E700FD0094BB8
:103DE000D3F89840294624B12046FFF78AFA304696
:103DF000DFE7D3F88000FFF72BFA2046D9E7184613
:103E0000D7E700BF4C000020836810B504465BB1C3
:103E1000FFF74DFF40B1204600F066FA0022BDE8F2
:103E20001040114600F010BB10BD38B5054610B16A
:103E30000378F62B07D028466FF0030100F0BEFF91
:103E40006FF0030038BD84683CB100F04DFA0122E8
:103E5000002100F0F9FA0020F4E7FFF739FF38B944
:103E600028466FF0100100F0A9FF6FF00200E9E7AB
:103E70002046E7E738B50D46044610B10378F62B27
:103E800007D020466FF0030100F098FF6FF00300A9
:103E900038BDFFF70CFF68B975B12946632000F003
:103EA00023FC20B1064B2046596900F00BFA6FF055
:103EB0000100EDE70020EBE76FF00200E8E700BF4C
:103EC0004C00002010B50446EFF3058333B1002009
:103ED0006FF0050100F072FF002010BDFFF7DCFE5F
:103EE0000028F4D1DFF808C0204600DFF5E700BF66
:103EF000013D000010B502460C46EFF3058343B1C7
:103F000082B910466FF0030100F058FF6FF0030014
:103F100010BDFFF7C1FE0028F2D1DFF824C0104623
:103F200000DFF5E71378F62BEBD1002CE9D1104632
:103F3000FFF7BDFE002814BF00206FF00200E7E786
:103F4000753E000010B50446EFF3058343B184B914
:103F500020466FF0030100F031FF6FF0030010BD49
:103F6000FFF79AFE0028F2D1DFF830C0204600DFCC
:103F7000F5E72378F62BEBD12046FFF7A9FE20B119
:103F8000204600F0B3F80020E9E720466FF010016A
:103F900000F014FF6FF00200E1E700BF2B3E0000CD
:103FA00008B50246EFF305833BB110466FF00501FB
:103FB00000F004FF6FF0050008BDFFF76DFE00285C
:103FC000F3D1DFF808C0104600DFF5E7993D0000A7
:103FD00010B5D0E85F3F5A1C914200D80022C0E8DB
:103FE000542F04B1F5E798B210BD000038B51A4C53
:103FF0000DF042FAE3680133E360236D03B19847A3
:1040000000F09EF9002000F0F3F9236C1BB3A26BC3
:10401000A1698A4202D0A163E3631CE0E36BB3B9F8
:10402000237A022B17D1656AADB195F9201092F968
:10403000203099420FD1284600F05FF9A06B00F0C4
:1040400077F9284600F0CAF9236CA563E4E7013B41
:10405000E363002BE4D038BD4C00002070B5224C47
:1040600004F1560504F15A06B4F85410D5E85F3F40
:1040700013B9BFF32F8F04E05A1EC5E8502F00B1CB
:10408000F4E79BB25BB33046FFF7A2FFE36D53F852
:10409000200020B30378F13B082BE5D801A252F8A9
:1040A00023F000BFC940000069400000CF4000007D
:1040B0006940000069400000D3400000D740000084
:1040C00069400000DB400000236E9847CCE7636E38
:1040D000FBE7A36EF9E7E36EF7E7236FF5E7BDE8CB
:1040E0007040002000F084B94C00002070B5164CE0
:1040F0000546B4F8541004F15602D2E85F3F9942E5
:1041000002D8BFF32F8F04E0581CC2E8560F06B147
:10411000F3E79BB2994205D829460220BDE87040DA
:1041200000F0F6BD04F15800FFF752FFE36D43F8CD
:104130002050637A23B9054B4FF080525A6070BD0E
:104140000123A372FBE700BF4C00002000ED00E05C
:10415000EFF310832BB9EFF31180003818BF012063
:104160007047012070470378F12B00D07047C0687A
:10417000F9E7000010B50A4A90F9201001234370B6
:10418000536A1C321BB193F920408C4205DCC0E914
:104190000232906003B1D86010BD1A469B68F1E707
:1041A0004C000020014B5869704700BF4C000020B4
:1041B00010B50023038083789A07044608D513F0CE
:1041C000100F016B0E4B0FD0D3F88400FFF799F856
:1041D000A378DB0712D50A4BD3F88800214638B103
:1041E000BDE81040FFF78DB8586FFFF731F8EFE7E3
:1041F000BDE81040D3F88000FFF72AB810BD00BF1B
:104200004C00002008B500F0E9FDDFF810C000DF29
:104210004FF0FF31002000F0BFFDFEE7CD4700006A
:1042200010B5C469621CD0E904310AD103B15961E7
:1042300042691AB113610023436101E0064A136326
:1042400010BD1BB1DA6959612244DA614269002A62
:10425000F0D1014AD362F3E74C000020930710B578
:1042600002F0010422D400F1280384B153E8000FC6
:1042700000EA01028A4203D0BFF32F8F002005E03D
:1042800020EA010243E8002404B1EFE710BD53E83F
:10429000000F084203D1BFF32F8F002005E020EA72
:1042A000010243E8002404B1F1E7EFE7806A01EA84
:1042B00000031CB18B4218BF0020E7E7002B08BFAA
:1042C0000020E3E710B591F9202083681BB193F932
:1042D0002040944205DAC1E90230816003B1D9601F
:1042E00010BD18469B68F1E783689A68826002B146
:1042F000D0600022DA6018467047C2682AB183682D
:10430000936003B1DA600023C360704710B50446C0
:1043100064B12378F12B07D0FFF7EFFF0146204669
:10432000BDE81040FFF7CEBFE468F1E710BD000024
:104330000123014643700148FFF7C4BF6800002015
:1043400038B5164DEC6A44B3E369013BE36123BB26
:104350006378732B06D009D8532B0BD003F0DF03FF
:10436000432B0DD12046FFF7FEFE09E003F0EF03DB
:10437000832BF6E72046FFF7F6FE2146FFF70AFCFF
:104380002046FFF7BAFFFFF7D3FF246924B1E369A2
:10439000002BDDD000236361EC6238BD4C000020AF
:1043A00090F82230826B13F0100F0CBF6020202099
:1043B00010447047074B596951B10B6B8A6B93429C
:1043C00003D21A68044B9A4202D0012000F0A0BC2C
:1043D000704700BF4C000020A52E5AE208B502230A
:1043E0004370024B9861FFF7E5FF08BD4C000020C9
:1043F00010B5144B04461A7A5969A0B9022A1FD184
:104400005C6AECB194F9202091F920309A4217DDD2
:104410002046FFF772FF0846FFF7ACFE2046BDE8D6
:104420001040FFF7DBBF022A05D190F9202091F957
:1044300020309A42EFDC2046BDE81040FFF778BFFD
:1044400010BD00BF4C00002038B505461446FFF7EC
:10445000A7FF01602846FFF7E3FE1CB1BDE8384026
:10446000FFF7C6BFBDE83840FFF762BF10B543781D
:10447000332B04460CD1416A90F82320FFF7EEFE5F
:10448000014628B120460022BDE81040FFF7DCBFFE
:1044900010BD70B5044620B10378F12B01D100297D
:1044A00008DA6FF003012046FEF746FC6FF00305C3
:1044B000284670BD4378042B06D16FF00201FEF749
:1044C0003BFC6FF00205F3E700F1280353E8002FEF
:1044D00042EA010543E8005606B1F7E74378332B7B
:1044E000E6D1416A90F82320FFF7B8FE0146002884
:1044F000DED094F823309B0756BF656A054620EA54
:10450000050501222046FFF79FFFD1E72DE9F04F77
:1045100085B00391019028B96FF0030100F03CFCD5
:104520000024BEE0002A4AD0966846B1B00702D106
:10453000D368432B06D86FF008010020EEE7D3685C
:10454000002BF8D1D2E90449976944B1610703D13E
:10455000B9F1000F40F0B1806FF00A01EDE72FB123
:10456000791E372903D96FF00B01E6E71827B9F157
:10457000000F40F0A680D2E900B3029366BB554D10
:10458000D5F8880008B3FEF7A2FE064600283DD005
:104590004FF00108DFF83CA1002C42D1B9F1000F27
:1045A0001DD14D4BDAF88400D3F85490B8B1FEF722
:1045B0008EFE0546E0B148F01008344623E09346ED
:1045C0001446182791460292D9E7D5F880000122B7
:1045D0004421FEF709FED8E74FF00008DAE7DAF8E1
:1045E000740022464946FEF7FFFD05460028E4D147
:1045F000B8F1000F13D0DAF8885031464DB1284693
:10460000FEF77FFE002548F0020864B96FF0040150
:1046100093E7DAF88000FEF71BFE2C46F3E74546E9
:10462000F1E72546344640F2F11222800022C4E927
:104630000222C4E90422C4E90622C4E90922C4E929
:104640000B25A9F14002029BE3702A44019BA2635F
:104650007FB2224AE363FD2184F80280C4F804B0EB
:1046600084F8207084F821706184C4F834902A6042
:10467000194A1268530718D4A36B34221846002134
:1046800013F0FAFB164A4263019A82634FF080727C
:10469000C263039A0262134BCAF860302046FFF7E8
:1046A000A7FE204605B0BDE8F08F29F00302443A8A
:1046B000CC21281D13F0E0FBDEE7002F7FF450AF84
:1046C000182719F0070F7FF447AFB9F1470F3FF6EE
:1046D00052AF41E74C00002050CF0100A52E5AE216
:1046E000054200006D44000038B51E4C237A022BB1
:1046F00034D1636A002B33D063694A1C587015D1DA
:10470000226B00216AB94FF0FF30C3E90421D86160
:1047100051B10B611448FFF7E7FDFFF75FFE012081
:1047200038BD11461269EDE72363F3E7E26A002022
:1047300012B1D569A9420BD2C3E90420D96158B19D
:104740000361002AE6D0D0695361411AD161E1E7E3
:104750001046491B1269EBE7E362F2E70020DFE74E
:104760001846DDE74C00002068000020F8B5164B25
:104770005C6905460F4616463CB920466FF00701B6
:10478000FEF7DAFA4FF0FF30F8BD002807DA2046CE
:104790006FF00301FEF7D0FA6FF00300F4E70A466A
:1047A00001462046FFF75AFD0028EDD14EB1656263
:1047B00084F8237031463320FFF796FF6FF0010035
:1047C000E2E76FF00200DFE74C00002038B5154D3E
:1047D0002B7A022B25D16B6A1BB36C69E06AFFF759
:1047E000B7F9A06918B100221146FFF72DFEEFF3CB
:1047F00009830D48A363FFF777FDFFF7EFFD002363
:104800006B61E278D20704D42046BDE83840FFF758
:10481000CFBC04226270E3606B6BA36003B1DC6009
:104820006C6338BD4C0000206800002038B5044699
:1048300010B10378F12B07D020466FF0030100F090
:10484000ABFA6FF0030038BD437803F00F03022B7F
:1048500025D0032B32D0012B35D1FFF74EFDE06A76
:10486000FFF776F9A06918B100221146FFF7ECFDB9
:104870006378022B2AD1EFF309831C48A363FFF767
:1048800033FDFFF7ABFD1A4B00225A61E07810F0C0
:1048900001051FD12046FFF78BFC0020D3E7144B06
:1048A0001A7A022A02D15B6A002BD8D16FF002017A
:1048B000204600F071FA6FF00200C4E7FFF71DFD1B
:1048C000FFF7AEFCCBE76FF00201F2E70020FFF745
:1048D0008FFDDBE70423064A63700023E360536B1C
:1048E000A36003B1DC605463D7E700BF6800002019
:1048F0004C00002038B50B4C0B48A26D0B4D00212D
:10490000FFF704FE636EA8624BB1E26D0848002118
:10491000FFF7FCFDA864003818BF012038BD012056
:10492000FCE700BF50CF0100094D00004C00002003
:10493000F14A000010B50446EFF3058333B10020BF
:104940006FF0050100F028FA002010BDFFF700FC11
:104950000028F4D1DFF808C0204600DFF5E700BFEB
:104960000D45000008B5EFF3058313B1054B5869F9
:1049700008BDFFF7EDFB0028F8D1DFF80CC000DF21
:10498000F6E700BF4C000020A541000010B504462A
:1049900000F030FAEFF305833BB120466FF00501DC
:1049A00000F0FAF96FF0050010BDFFF7D1FB002809
:1049B000F3D1DFF808C0204600DFF5E72D480000FE
:1049C00038B502460D46EFF305834BB192B96FF04F
:1049D00003011046FEF7B0F96FF00304204638BD1E
:1049E000FFF7B6FB0028F1D1DFF844C0104600DF26
:1049F0000446F3E71378F12BE9D1002DE7DB537878
:104A0000042B07D16FF002011046FEF795F96FF005
:104A10000204E3E702F1280353E8001F41EA05041A
:104A200043E8004000B1F7E71046FFF75FFBD5E72A
:104A30009344000010B50446EFF305833BB100201A
:104A40006FF00501FEF778F96FF0050010BDFFF774
:104A50007FFB0028F3D1DFF808C0204600DFF5E730
:104A60006D47000030B50C4D6B6C002213B11C6912
:104A70008C420AD9C0E9022301611BB11C6998600C
:104A8000611A19612AB1D06030BD1A46091BDB6872
:104A9000ECE76864F8E700BF4C00002070B5134DE8
:104AA0006C6C04B32369013B236101262369D3B9EC
:104AB000E3680BB1A2689A606B640023E86C1A4645
:104AC00004F11801FEF770FE18B12146032000F032
:104AD0001FF9E378012B07D161692046FFF7C2FF78
:104AE0006C6C002CE2D170BD6670F9E74C000020C0
:104AF0000B4B0C4C07B51A6E586E0821FEF73CFEA6
:104B0000094BE0642365E06C4FF0FF3300226946F7
:104B1000FEF78AFE0028F6D1DDE900309847F2E77B
:104B200050CF01004C0000209D4A000008B5094B01
:104B3000094A1A60094B9B1A094A1360094B0A4A31
:104B40001A600A4B9B1A0A4A136000F051F800F0F1
:104B50007BF800BF3C16002000FC02200000032070
:104B60003816002070DA002000E4002000FC02204B
:104B70006CDA00200E4838B50E4B03600B250E4B47
:104B800045601C24C4608360FFF726F80B4B186057
:104B90000B480C4BC460C0E900350B4B8360FFF73A
:104BA0001BF80A4B1860BDE8384012F05BBD00BF2F
:104BB00008160020ACD501001C1600201816002095
:104BC000D8150020B9D50100EC150020E81500200B
:104BD000FCF7D0BF024B4FF0FF311868FFF714B855
:104BE00018160020014B1868FFF726B81816002089
:104BF000094A0A4938B5956808460023EC5840F838
:104C0000044B0433B3F5CC7FF8D191600AF018FC63
:104C1000BDE8384000F015B800ED00E00000FF1FCF
:104C20007047704708B500F043F8FFF7F9FFFFF74A
:104C3000A1FFFFF7F6FF0AF09FF9BDE80840FFF774
:104C4000C7BFFEF71FBA0000114C124B23614FF48F
:104C5000805363614423E3600F4BA360182307B5BF
:104C6000A3610E480E4B236022460021FFF762FE2F
:104C7000034628B90B49009022460B480AF0BCF9BC
:104C8000FEF718FA0023094900931A46F5E700BF1A
:104C9000402600204016002064260020254C0000FD
:104CA000D3D50100D8D501001D010180F4D5010044
:104CB0001FB5064B0FCB6C4684E80F002046FEF76D
:104CC0008BFF034B186004B010BD00BFB8CF0100CC
:104CD000A826002073B506460C4615460AF07EF954
:104CE00058B906342ABF064B064953F8241000234E
:104CF0000093324628460AF07FF902B070BD00BF2B
:104D0000BCD7010011D7010008B50CF0BFFB0000B3
:104D100007B50023421E00930023042A19D8DFE8B8
:104D200002F003080C1014000C490D4801220AF08F
:104D300063F90C490C480222F9E70C490C4803229C
:104D4000F5E70C490C480422F1E70C490C48052210
:104D5000EDE702460B490C48E9E700BF09D6010020
:104D6000250102802AD60100260102804FD60100CB
:104D70002701028084D6010028010280BFD60100ED
:104D80002A010280FFD6010000010280014A01468B
:104D9000FFF7A0BF31010180014AFFF79BBF00BFB1
:104DA00032010180014AFFF795BF00BF3701018042
:104DB000014AFFF78FBF00BF3301018011F1110FCE
:104DC00002D0024AFFF786BF704700BF340101805E
:104DD000014AFFF77FBF00BF3801018010B5FFF720
:104DE000C1FD034B1B6813B1BDE81040184710BD4F
:104DF000C8260020024B1B6803B11847704700BF4C
:104E0000C826002030B595B02022002102A813F05A
:104E100033F8002313934FF0FF330393454B0121E5
:104E20001A889B788DF81230ADF813208DF8153064
:104E3000ADF816208DF81830ADF819208DF81B301C
:104E40000191ADF8102001AD8DF824100FCD0AAC02
:104E50000FC40FCD0FC42B68374823600AA90BF08D
:104E6000C3FC364A936B43F400639363936B43F440
:104E700080639363324B196C21F4E06141F48061EB
:104E80001964596C21F4E06141F480615964996CB2
:104E900021F4E06141F480619964D96C21F4E0610E
:104EA00041F48061D96427494B6823F4E06343F4FB
:104EB00080634B60936B43F40073936340F223432E
:104EC0000B80214B596B21F4E06141F480615963FF
:104ED000196B21F4E06141F480611963996B21F44D
:104EE000E06141F480619963596921F4E06141F422
:104EF00080615961196C21F4E06141F480611964A9
:104F0000596C21F4E06141F480615964D96B21F45A
:104F1000E06141F48061D963196F21F4E06141F4EB
:104F200080611967536823F4401343F400135360FE
:104F300015B030BDF000002000D0004000800440DB
:104F400000B0044000A0044000900440085870479E
:104F500030B5551854586B6804B1601843601C6034
:104F6000014B53506B6030BDEFBEADDE00222DE92A
:104F7000F0434FF00A0C0746964610464FF02E08B5
:104F80000B18BE5C1D46B6FBFCF90CFB19603030FB
:104F90002C4605F8010B304609285FFA89F6F2D84D
:104FA00085F800E01D46AC4210D81C46581A2578FA
:104FB0000133002DF9D1032A02F101021CBF013097
:104FC00084F80080042ADBD1BDE8F08320782E78B5
:104FD00004F8016905F8010BE5E71029F0B501D9DE
:104FE0000020F0BD561E002403320A278C42F7D061
:104FF000035D303B092BF3D8234600248B420BD3AF
:1050000006F8014F964215D18B421DBFC05CB0FA25
:1050100080F040090120E4E7C55C303D5FFA85FC83
:10502000BCF1090FECD807FB0454FF2C03F101037A
:10503000E4D9D5E78B42D3D05C1CC35C2E2BD5D0F2
:10504000CEE700002DE9F84F0F4605460146002344
:105050004FF001084FF0FF0931F8022B5ABB5A1CE0
:10506000072A21D9D01A404501D980469946531CB8
:10507000072BF1D91A494FEA480B3C4600264FF05E
:105080003A0AB14519D1B9F1000F01D104F801ABC9
:1050900023464644072E03F801AB5D441DD9002288
:1050A0001A70D81BBDE8F88F31F8024B501C002C49
:1050B000D8D10246D4E71A46D9E72A8852BA92B222
:1050C000204613F06DF90136082E04EB0003E6D0FC
:1050D00004F800A00249023501331C46D1E700BFA5
:1050E000D4D7010027292DE9F0410646104656D9AC
:1050F0001022002112F0C0FE0020BDE8F08124F053
:10510000200EAEF1410EBEF1050F3A4602D9303CF9
:10511000092CEDD8013905D03A4617F8014B0CB1EE
:105120003A2CECD1941B042CE2DC082BE0D00027B5
:1051300016F8014BA4F1300E5FFA8EF8B8F1090FA2
:1051400003D84EEA0714A7B2F2E7A4F1410EBEF16C
:10515000050F03D8373C44EA0714F4E7A4F1610EC5
:10516000BEF1050F01D8573CF5E73C0A00F81340A3
:105170000CF81370013351B114783A2C0DD15478D6
:105180003A2C0AD10135B3D1013202391D46561CE1
:1051900059B132784AB13746BEE70139F7E74FF0E7
:1051A000FF35002302F1010CF2E76A1C13D0C3F1B2
:1051B00008035C0004EB450300EB4505C3F1100256
:1051C0002946184412F0DCFD22460021284612F040
:1051D00053FE012091E7082B8AD1FAE72DE9F04F21
:1051E0008DB04B6801938B680293CB6803930B6976
:1051F00004938B6905930B6A06934B6A07938B6A3A
:105200000893CB6A09934B6B0A93CB6B0B93DB4AE6
:105210008368D1F800A0D1F814E0D1F81C90D1F83F
:1052200030C0D1F83880C668D54DDFF8E8B31A44ED
:10523000D0E904314B40334052444B401344D14AEF
:105240000A4401990469049F0A44016906EB7363E7
:105250007140194061401144CB4A2244029C03EB47
:105260003151224486EA03040C4074401444039AEA
:10527000354401EBF434154483EA010222405A40DC
:105280002A44C24D3D4404EBB2221D4481EA04038A
:1052900013404B402B44BE4D059F754402EB736396
:1052A0000D4484EA0201194061402944B94D3D444E
:1052B00003EB3151254482EA03040C4054402C4452
:1052C000B54D069F4D4401EBF434154483EA0102C9
:1052D00022405A402A44B14D3D4404EBB2221D44C1
:1052E00081EA040313404B40079F2B44AC4D3D44DF
:1052F00002EB73630D4484EA0201194061402944C2
:10530000089D099FA5F524454F3D03EB31512544E8
:1053100082EA03040C4054402C44A24D3D4401EB6E
:10532000F434154483EA010222405A402A449E4D37
:105330000A9F654404EBB2221D4481EA0403134032
:105340004B402B44994D3D4402EB73630D4484EA7A
:105350000201194061402944954D0B9F454403EBE0
:105360003151254482EA03040C4054402C44914DB1
:105370003D4401EBF434154483EA010222405A40D3
:10538000019F2A448C4D04EBB2223D441D4484EA23
:1053900002030B406340059F2B44884D02EBF363EF
:1053A0003D440D4482EA030121405140099F2944B4
:1053B000834D03EBF1513D44254483EA010414403D
:1053C0005C402C447F4D089F01EBB4445544154488
:1053D00081EA04021A404A402A447B4D04EB3232EF
:1053E00075441D4484EA02030B4063402B44774D0F
:1053F00002EBF3633D440D4482EA03012140514036
:105400000B9F2944724D03EBF1513D44254483EA3F
:10541000010414405C40049F2C446E4D01EBB444E5
:105420003D44154481EA04021A404A40079F2A4439
:10543000694D04EB32323D441D4484EA02030B40C3
:1054400063402B44654D039F02EBF36345440D44D9
:1054500082EA0301214051402944614D03EBF1519F
:105460003D442C4483EA010515405D40069F2C44D1
:105470005C4D01EBB4443D442A4481EA04051D40DF
:105480004D400A9F2A44584D04EB32323D442B4490
:1054900084EA02050D406540029F2B44534D02EB08
:1054A000F3633D44294482EA0305254055402944DD
:1054B0004F4D069F03EBF1514D442C4483EA010507
:1054C00015405D40254401EBB54581EA0504E34400
:1054D000934404EA03024A405A44AEF5B82B05EB64
:1054E0003232ABF2BE6B54405B442344414C3C44EB
:1054F00002EB33730C4485EA02015940099F2144B1
:105500003D4C3C4403EB7151254482EA03044C407A
:1055100025443A4C019F444401EB3545144483EA49
:1055200001026A402244364C3C4405EB72221C4482
:1055300081EA05035340049F2344324C3C4402EB70
:1055400033730C4485EA0201594021442E4C089FD4
:105550004C4403EB7151254482EA03044C402C4433
:105560002A4D3D4401EB3444154483EA0102624074
:105570000A9F2A44264D3D444EE000BF78A46AD7D6
:10558000EECEBDC156B7C7E8DB702024AF0F7CF567
:105590002AC68747134630A8019546FDD8988069EA
:1055A000AFF7448BBED75C892211906B937198FD45
:1055B0008E4379A62108B44962251EF640B340C047
:1055C000515A5E26AAC7B6E95D102FD6531444027D
:1055D00081E6A1D8C8FBD3E7E6CDE121D60737C3E2
:1055E000870DD5F4ED145A4505E9E3A9F8A3EFFCBE
:1055F000D9026F6781F6718722619D6D0C38E5FDD8
:1056000044EABEA4A9CFDE4B604BBBF670BCBFBE64
:10561000C67E9B288A4C2A8D04EB72221D4481EAA7
:10562000040353402B447B4D039F554402EB3373DB
:10563000294484EA02055D402944774D3D4403EB4B
:105640007151254482EA03044C40059F2C44734D5C
:105650003D4401EB34442A4483EA01056540079F39
:1056600015446F4A3A4404EB7525134481EA040259
:105670006A401A446B4B0B9F634405EB32720B4438
:1056800084EA050151401944674B3B4402EB7151D8
:105690001C4485EA02034B40029F1C44634B3B447D
:1056A00001EB34441D4482EA010363402B44604D06
:1056B000039F04EB73235544154463EA01026240DF
:1056C0002A445C4D03EBB2624D4462EA040989EA64
:1056D000030929444944584D02EBB151454461EA5C
:1056E000030888EA02082C44544D444401EB7444F6
:1056F00075441D4464EA02034B402B44504D04EBB7
:10570000F323654463EA010C8CEA040C15440CEBAA
:1057100005024C4D03EBB2623D44294462EA0407A2
:10572000089D5F403944A5F5801502EBB151A5F6FF
:105730008335254461EA03045440019F2C44424DC3
:1057400001EB74443D4464EA02074F401D447B1959
:10575000069F3E4D04EBF3233D4463EA0107674097
:1057600015447A190B9F3A4D03EBB2623D4462EA4D
:10577000040C8CEA030C2944059F364D614402EB6E
:10578000B1513D4461EA030757402C443C44324D3B
:105790000A9F01EB74443D441D4464EA02034B40FC
:1057A000049F2B442D4D04EBF3233D44154463EA41
:1057B00001026240099F2A44294D03EBB2623D4435
:1057C0000D4462EA04015940029F2944254D02EB31
:1057D000B1513D44254461EA03045440079F2C44E1
:1057E000214D3D442B44856801EB7444154464EA23
:1057F00002024A401A440369856026441C444369F6
:10580000046106EBF2261944C66041610DB0BDE8A3
:10581000F08F00BFFA27A1EA8530EFD4051D880478
:1058200039D0D4D9E599DBE6F87CA21F6556ACC423
:10583000442229F497FF2A43A72394AB39A093FC71
:10584000C3595B6592CC0C8FD15D84854F7EA86F68
:10585000E0E62CFE144301A3A111084E827E53F70B
:1058600035F23ABDBBD2D72A91D386EB0023C0E9EB
:105870000033084B836003F18833C36003F129438D
:10588000A3F59613A3F68B630361A3F188334361F9
:10589000704700BF012345672DE9F843141E0546F4
:1058A0000E4630DD036803F03F071B19036022BF7B
:1058B00043680133436097B1C7F1400844450EDBAC
:1058C00000F11809424609EB0700FAF7F1FF4946D3
:1058D0002846FFF783FC4644A4EB0804002726442F
:1058E00003E02846FFF77AFC403C3F2CA6EB04017E
:1058F000F7DC002C07DD05F1180022463844BDE82E
:10590000F843FAF7D5BFBDE8F883000037B50D4678
:10591000D0E90021530F43EAC103D1000446080A2D
:105920008DF800108DF80100080C090E02F03F02FE
:105930008DF80310190A372A8DF805104FEA134124
:1059400094BFC2F13802C2F178028DF802008DF8DE
:1059500004308DF806101B0E204618498DF80730CC
:10596000FFF79AFF082269462046FFF795FFA368D4
:105970002B70A3681B0A6B706389AB70E37AEB70C2
:10598000E3682B71E3681B0A6B71E389AB71E37BFE
:10599000EB7123692B7223691B0A6B72638AAB72EA
:1059A000E37CEB7263692B7363691B0A6B73E38A95
:1059B000AB73E37DEB7303B030BD00BFD7D70100FD
:1059C00010B5002210F0010304D0A1B310F8012B90
:1059D0001202013910F0030405D002291ADB30F855
:1059E000024B1219023908290BDB50F8044B12192B
:1059F00042F1000250F8044B121942F1000208393A
:105A0000F1E7022906DB30F8024B121942F10002DD
:105A10000239F6E719B10478121942F10002C2F313
:105A20000F44C2F30F021219C2F30F44C2F30F0264
:105A3000121903B152BA104610BD130911D051F812
:105A400004CB40F804CB51F804CB40F804CB51F818
:105A500004CB40F804CB51F804CB40F804CB013B15
:105A6000EDD112F00F0305D011F801CB00F801CBF6
:105A7000013BF9D170470000082913B50A460446D6
:105A800005DD00230F491048009309F0B5FA4822BC
:105A9000002112F0F1F904F11403E36010232361F3
:105AA000201DFDF7A3F80346206020B900900749A8
:105AB00007482246E9E70221FDF7B0F8002002B0CE
:105AC00010BD00BF17D801000501038030D80100C8
:105AD0000F01038007B590F8252090F824309342F9
:105AE00005D0002303490448009309F085FA03B068
:105AF0005DF804FB4BD801000401038070B502225D
:105B000004464FF0FF330E4600681146FDF7CEF80D
:105B1000FDF7E6FA94F8243003F10A02013303F0AA
:105B2000070344F82260054684F8243020680121E8
:105B3000FDF774F894F8243094F82520013303F02D
:105B40000703934203D120680221FDF797F8284606
:105B5000BDE87040FDF7DABA022273B500230446AF
:105B60000E4600681146FDF7A1F8021E01DB9307FF
:105B700009D4002316491748009309F035FA4FF06D
:105B8000FF3002B070BDFDF7ABFA94F8243003F19A
:105B90000A02013303F0070344F82260054684F843
:105BA000243020680121FDF739F894F8243094F866
:105BB0002520013303F00703934203D1206802211B
:105BC000FDF75CF82846FDF7A1FA0020D9E700BFF1
:105BD00060D801000F010380F7B5174604460E4652
:105BE000FDF7D6FA002F14BF3B464FF0FF330222D9
:105BF000054601212068FDF759F8021E01DBD30795
:105C000009D4002317491848009309F0EDF94FF023
:105C1000FF3003B0F0BDFDF763FA07462EB194F8EC
:105C200025300A3354F82330336094F82530206847
:105C3000013303F0070384F825300221FCF7EEFF5F
:105C400094F8242094F825309A4203D12068012149
:105C5000FDF714F83846FDF759FAFDF799FA401B9D
:105C6000D7E700BF78D801000D01038073B5022289
:105C700004460D46006800230121FDF717F8021EB7
:105C800001DBD30709D4002316491748009309F014
:105C9000ABF94FF0FF3002B070BDFDF721FA0646B8
:105CA0002DB194F825300A3354F823302B6094F842
:105CB00025302068013303F0070384F825300221E2
:105CC000FCF7ACFF94F8242094F825309A4203D1D5
:105CD00020680121FCF7D2FF3046FDF717FA0020BB
:105CE000D9E700BF96D801000F01038037B50446FD
:105CF0000D462422002112F0BFF804F11403E360E2
:105D000010232361221D29464FF6FF70FEF7DAF8B3
:105D10000346206028B9009003490448224609F050
